:100000000C94E0000C944D160C944D160C944D1667
:100010000C944D160C944D160C944D160C944D16D4
:100020000C944D160C944D160C944D160C944D16C4
:100030000C944D160C944D160C944D160C944D16B4
:100040000C94310A0C944D160C9468130C944D16B4
:100050000C944D160C944D160C944D160C944D1694
:100060000C944D160C944D16084AD73B3BCE016EAE
:1000700084BCBFFDC12F3D6C74319ABD56833DDAFF
:100080003D00C77F11BED9E4BB4C3E916BAAAABE0E
:10009000000000803F05A84CCDB2D44EB93836A937
:1000A000020C50B9918688083CA6AAAA2ABE000074
:1000B00000803F0001000265800265026B002CA0F9
:1000C000026B027A800000407A10F35A00A0724E50
:1000D00018090010A5D4E80000E87648170000E4ED
:1000E0000B54020000CA9A3B000000E1F505000035
:1000F00080969800000040420F000000A08601009A
:100100000000102700000000E80300000000640069
:10011000000000000A0000000000010000000000D4
:100120002C76D888DC674F0823DFC1DFAE59E1B1F8
:10013000B796E5E3E453C63AE651997696E8E6C207
:100140008426EB898C9B62ED407C6FFCEFBC9C9F0E
:1001500040F2BAA56FA5F490055A2AF75C936B6C30
:10016000F9676DC11BFCE0E40D47FEF520E6B50024
:10017000D0ED902E0300943577050080841E080092
:1001800000204E0A000000C80C333333330F986E42
:1001900012831141EF8D2114893BE65516CFFEE6FF
:1001A000DB18D1844B381BF77C1D901DA4BBE424C5
:1001B000203284725E228100C9F124ECA1E53D2742
:1001C00011241FBECFEFD8E0DEBFCDBFE4EBF0E0DF
:1001D00040E017C0B591A59135912591059107FD96
:1001E0000CC095918591EF01F92FE82F05900D92A4
:1001F000A217B307D9F7FE0104C01D92A217B307D7
:10020000E1F7E53CF40731F70E9434160C9408013D
:10021000F894FFCF0A0D5058203D20000A0D505988
:10022000203D20000A0D505A203D20000A0D000AF2
:100230000D436F6F7264656E6164617320617274E7
:100240006963756C617265732063616C63756C6161
:1002500064617320000A0D5061736F73204D6F74D9
:100260006F722041202564202D20000A0D506173FB
:100270006F73204D6F746F722042202564202D20F3
:10028000000A0D5061736F73204D6F746F722043BD
:10029000202564202D20004E414E494E4954594995
:1002A0004E46CDCCCC3D0AD7233C17B7D13877CCBE
:1002B0002B329595E6241FB14F0A00002041000023
:1002C000C84200401C4620BCBE4CCA1B0E5AAEC5DC
:1002D0009D7461018F156501E90F6601110F6701BA
:1002E0002C0E00004F1661008F1562008301700113
:1002F0004A1500004F16050406020A080901E60225
:1003000000D2020037022F923F924F925F926F927B
:100310007F928F929F92AF92BF92CF92DF92EF9295
:10032000FF920F931F93CF93DF93CDB7DEB7C058E3
:10033000D1090FB6F894DEBF0FBECDBF0E94C01525
:100340008B3309F048C090917702911121C06DE084
:1003500071E080E840E050E00E94FB0560932F01CF
:100360007093300180933101909332012091790292
:1003700030E0EDE0F1E080E090E011920196281786
:100380003907DCF71092790281E080937702F5C19A
:10039000913009F0E8C16DE071E080E840E050E0A4
:1003A0000E94FB056093000170930101809302019C
:1003B000909303012091790230E0EDE0F1E080E0DC
:1003C00090E01192019628173907DCF71092790214
:1003D00010927702D2C18A3209F0C5C16DE071E096
:1003E00080E840E050E00E94FB05609309017093B3
:1003F0000A0180930B0190930C010E941409209133
:10040000530230915402409155025091560260912E
:100410004702709148028091490290914A020E94DD
:10042000F51526E636E646E65FE30E9438166B01D0
:100430007C010E94E015C701B6010E94FC154B012A
:100440005C01072E000C880B990B0E94F11126E627
:1004500036E646E65FE30E943C169B01AC016091E4
:1004600053027091540280915502909156020E945D
:10047000F615609353027093540280935502909343
:10048000560220914F0230915002409151025091FA
:100490005202609143027091440280914502909112
:1004A00046020E94F51526E636E646E65FE30E9420
:1004B00038166B017C010E94E715C701B6010E9446
:1004C000FC156B017C01072E000C880B990B0E9418
:1004D000F11126E636E646E65FE30E943C169B01F4
:1004E000AC0160914F027091500280915102909145
:1004F00052020E94F61560934F027093500280934F
:1005000051029093520220914B0230914C02409143
:100510004D0250914E0260913F02709140028091D5
:100520004102909142020E94F51526E636E646E623
:100530005FE30E9438162B013C010E94EE15C301B7
:10054000B2010E94FC152B013C01072E000C880B08
:10055000990B0E94F11126E636E646E65FE30E941B
:100560003C169B01AC0160914B0270914C02809152
:100570004D0290914E020E94F61560934B027093CB
:100580004C0280934D0290934E022091790230E00C
:10059000EDE0F1E080E090E0119201962817390734
:1005A000DCF71092790226E230E04FE252E060E0A0
:1005B000CE0101961C010E948714C1010E942C15D6
:1005C0009F928F9285E592E0A0E0AF939F938F93E7
:1005D0003F922F920E94B113C1010E942C1560918D
:1005E00053027091540280915502909156028101FC
:1005F00022E043E00E94F613C1010E942C15DF9215
:10060000CF928BE692E0A0E0AF939F938F933F92BF
:100610002F920E94B113C1010E942C1560914F02CC
:1006200070915002809151029091520222E043E079
:100630000E94F613C1010E942C155F924F9281E82F
:1006400092E0A0E0AF939F938F933F922F920E94EE
:10065000B113C1010E942C1560914B0270914C02A4
:1006600080914D0290914E0222E043E00E94F613E9
:10067000C1010E942C1523E030E04CE252E060E022
:10068000C1010E948714C1010E942C150E94410BD8
:1006900060915302709154028091550290915602DC
:1006A0009B01AC010E94F6152BED3FE049E450E4BC
:1006B0000E943C1620E030E044EB53E40E943816E0
:1006C0006093330170933401809335019093360128
:1006D00060914F02709150028091510290915202AC
:1006E0009B01AC010E94F6152BED3FE049E450E47C
:1006F0000E943C1620E030E044EB53E40E943816A0
:1007000060932B0170932C0180932D0190932E0107
:1007100060914B0270914C0280914D0290914E027B
:100720009B01AC010E94F6152BED3FE049E450E43B
:100730000E943C1620E030E044EB53E40E9438165F
:10074000609305017093060180930701909308015F
:100750000E94510C81E0809304010FB6F894DEBF33
:100760000FBECDBF0AC0E091790291E09E0F909339
:100770007902F0E0E35FFE4F8083C058DF4F0FB691
:10078000F894DEBF0FBECDBFDF91CF911F910F91C7
:10079000FF90EF90DF90CF90BF90AF909F908F90A1
:1007A0007F906F905F904F903F902F9008952F9281
:1007B0003F924F926F927F928F929F92AF92BF9291
:1007C000CF92DF92EF92FF920F931F93CF93DF931D
:1007D000CDB7DEB762970FB6F894DEBF0FBECDBFC0
:1007E0006C013A01862E7901FC0110861782848102
:1007F00081FFE7C19E012F5F3F4F3D872C87C901D5
:10080000A0E8888B998BAA8B9FE3992EF3018491A2
:1008100087FC8081882309F4D0C1482D93012F5F84
:100820003F4F4F4F853219F03901842E0AC0F9012C
:10083000849147FD808192E0690E711C811C853294
:1008400029F4B60190E00E942C12E0CFB12C00E018
:1008500010E01032A0F48B3269F030F4803259F09D
:10086000833269F410612CC08D3239F0803339F451
:10087000116026C01260146023C0186021C017FDEB
:1008800029C090ED980F9A3078F416FF06C0AAE0C0
:10089000BA9E900D1124B92E13C0EAE00E9F900D60
:1008A0001124092F10620CC08E3221F416FD85C16F
:1008B000106406C08C3611F4106802C0883651F4FA
:1008C000F301849187FC8081FFEF6F1A7F0A8F0A02
:1008D0008111BFCF982F9F7D9554933028F424E049
:1008E000E20EF11C99820FC0833631F0833791F00C
:1008F000833509F063C027C0F701808189839701A0
:100900002E5F3F4F7901288839884A88AA24A3940A
:10091000B12C17C0A7014D5F5F4F5F874E87F7016E
:1009200020803180428016FF03C04B2D50E002C072
:100930004FEF5FEF842DB1010E9451145C01EE84F2
:10094000FF841F7718C097012D5F3F4F3F872E8789
:10095000F70120803180428016FF03C04B2D50E00C
:1009600002C04FEF5FEF842DB1010E9451145C0172
:100970001068EE84FF8413FD1DC0802F90E0A81640
:10098000B906C0F4B60180E290E00E942C1201503A
:10099000F4CFF101849147FC8081FFEF2F1A3F0AC9
:1009A0004F0AB60190E00E942C120111015021E083
:1009B000A21AB108A114B10461F7F5C0843611F090
:1009C000893671F5F70117FF08C060817181828156
:1009D000938197012C5F3F4F09C060817181072E81
:1009E000000C880B990B97012E5F3F4F79011F7602
:1009F000312E97FF0AC090958095709561957F4F35
:100A00008F4F9F4F312F3068332E2AE030E0AE01F8
:100A10004F5F5F4F0E94B810482E4C85441A4AC061
:100A2000853729F41F7EA12E2AE030E025C0512F02
:100A3000597FA52E8F36C1F018F4883579F0BDC0E6
:100A4000803719F0883721F0B8C0852F8061A82E33
:100A5000A4FE0DC09A2D9460A92E09C014FF0AC0EF
:100A6000A52FA660AA2E06C028E030E005C020E130
:100A700030E002C020E132E0F701A7FE08C060814B
:100A8000718182819381A7014C5F5F4F07C06081B4
:100A9000718180E090E0A7014E5F5F4F7A01AE0167
:100AA0004F5F5F4F0E94B810482E5C85451A8A2D13
:100AB0008F77382E36FE0DC0932D9E7FA92E4B14B6
:100AC00058F434FE0BC032FC09C0A32DAE7EAA2E12
:100AD00005C0142DA32C03C0142D01C01B2DA4FE92
:100AE0000EC0FE01E40DF11D8081803321F4EA2D5A
:100AF000E97EAE2E08C0A2FE05C01E5F04C08A2D8E
:100B0000867809F01F5FA3FC11C0A0FE06C0101775
:100B100088F4040DB02EB11A0EC0101760F4B6019F
:100B200080E290E00E942C121F5FF7CF101718F49C
:100B3000011B02C0B42C00E0A4FE10C0B60180E38B
:100B400090E00E942C12A2FE17C0A1FC03C088E70F
:100B500090E002C088E590E0B6010CC08A2D86784E
:100B600059F0A1FE02C08BE201C080E2A7FC8DE239
:100B7000B60190E00E942C124B1438F4B60180E3C9
:100B800090E00E942C12BA94F7CF4A94E1E0F0E092
:100B9000EC0FFD1FE40DF11D8081B60190E00E9475
:100BA0002C124110F2CF002309F430CEB60180E2BE
:100BB00090E00E942C120150F6CFF60187819085BB
:100BC00002C08FEF9FEF62960FB6F894DEBF0FBEA4
:100BD000CDBFDF91CF911F910F91FF90EF90DF90EC
:100BE000CF90BF90AF909F908F907F906F904F90DD
:100BF0003F902F9008952F923F924F926F927F9245
:100C00008F929F92AF92CF92DF92EF92FF920F93CB
:100C10001F93CF93DF933B01882E6A014115510545
:100C200021F0FA016083718382831301482CFFEF66
:100C30002F1A3F0A4F0AF301E49087FCE0808E2DC3
:100C400090E00E94AF15422D332D242D892B19F0F1
:100C5000842C3101EACF6DE2E6120EC01301482C5C
:100C600072E0270E311C411CE42FF32FE49027FD86
:100C7000E080FF24F3940FC08BE2E8120BC0130155
:100C8000482CE2E02E0E311C411CE42FF32FE4909F
:100C900027FDE080F12C842C3101F1E06F1A7108FE
:100CA000810803E010E02FE932E040E0882DB30135
:100CB0000E941611892B29F5842C310162E0660E01
:100CC000711C811C05E010E02AE932E040E0882D2B
:100CD000B3010E941611892B31F4842C310177E085
:100CE000670E711C811CC114D10421F0F6016082D1
:100CF00071828282F11024C160E070E080E89FE799
:100D000028C103E010E027E932E040E0882DB3017C
:100D10000E941611892B69F4C114D10409F415C17C
:100D2000A42DC1010296A11DF60180839183A283A7
:100D30000CC1842C310120E030E0A901C0E0D0E0FA
:100D4000A82DC301E0EDEE0DEA3030F51F2D126045
:100D50008F2D8870F2FE04C0811124C0219622C01C
:100D600081112197A5E0B0E00E949A15AB01BC016A
:100D7000440F551F661F771F9A01AB012E0F311DBF
:100D8000411D511D2839F9E93F074F07F9E15F0778
:100D900048F01F2D166006C0EE3F71F4F3FC61C0F1
:100DA0001F2D1860F301E49087FCE0806FEF661A56
:100DB000760A860AF12EC4CF6E2D6F7D653409F058
:100DC00050C0F3016491A7FD60817FEF671A770A35
:100DD000870A6D3221F4EF2DE061FE2E07C06B32E1
:100DE00029F0A82DC301E1E0F0E008C0F30164910F
:100DF00087FC60810296A11DE2E0F0E060536A305A
:100E000048F0F195E195F1098E0F9F1FA11DF7FDA7
:100E1000AA9527C000E010E00038FCE01F075CF452
:100E2000F801EE0FFF1FEE0FFF1F0E0F1F1F000F29
:100E3000111F060F111D0196A11D3C018A2E61E0B4
:100E4000661A71088108F301649187FC6081605320
:100E50006A3010F3F4FE03C0119501951109C00F1B
:100E6000D11FF1FE09C0C114D10431F00197A109CD
:100E7000F60180839183A283CA01B9010E94EF1118
:100E80002F2D2370233019F06B017C0106C06B01FC
:100E90007C01F7FAF094F7F8F09420E030E0A90133
:100EA000C701B6010E942F16882309F446C0D7FF58
:100EB0000AC0D195C195D10936EB832E32E0932E2D
:100EC00030E0A32E06C02EEC822E22E0922E20E0EF
:100ED000A22E96E0692E712C00E210E0C017D10717
:100EE0006CF0F4015A2D0E948315A70196010E940F
:100EF0003C166B017C01C01BD10BF0CFF4E08F1AC4
:100F00009108A1081595079561E0661A710831F7F7
:100F10008E2D880F8F2D881F8F3F49F020E030E005
:100F2000A901C701B6010E942F16811106C082E2F5
:100F300090E09093BE018093BD01C701B60109C046
:100F400060E070E080E89FEF04C060E070E080EC5B
:100F50009FE7DF91CF911F910F91FF90EF90DF906E
:100F6000CF90AF909F908F907F906F904F903F90D9
:100F70002F900895A9E0B0E0E0ECF7E00C943B146A
:100F80006A01122FB02E2BE3201720F0FF24F394D8
:100F9000F00E02C02CE3F22E0F2D27E0AE014F5FC2
:100FA0005F4F0E94540DBC014981842F89708130AC
:100FB00031F0E1FC06C0E0FE06C090E205C09DE213
:100FC00003C09BE201C090E05E2D507143FF3CC026
:100FD000911102C083E001C084E0811718F4212F31
:100FE000281B01C020E051110BC0F601822F30E216
:100FF000882319F031938150FBCFC20ED11C20E021
:10100000992329F0D6019C93F60131966F01C60110
:101010000396E2FE0AC03EE4D6013C9341E41196F9
:101020004C93119712963C9306C03EE6F60130832E
:1010300041E641833283FC01322F40E2332309F43D
:1010400042C041933150FACF42FF44C0911102C0D7
:1010500083E001C084E0811718F4212F281B01C010
:1010600020E051110BC0F601822F30E2882319F0E5
:1010700031938150FBCFC20ED11C20E0992329F07F
:10108000D6019C93F60131966F01C6010396E2FEEC
:101090000BC039E4D6013C933EE411963C93119782
:1010A00036E412963C9307C039E6F60130833EE6FB
:1010B000318336E63283FC01322F40E2332319F0CC
:1010C00041933150FBCFFC01E20FF11D10828EEFF6
:1010D0009FEFA6C021E030E0911102C020E030E097
:1010E000161617061CF4FB01319602C0E1E0F0E091
:1010F0002E0F3F1FBB2021F0EB2DF0E0319602C0F8
:10110000E0E0F0E02E0F3F1FE12FF0E02E173F0749
:101110001CF4121B212F01C020E08E2D887159F480
:10112000F601822F30E2882319F031938150FBCFF2
:10113000C20ED11C20E0992329F0D6019C93F60120
:1011400031966F0151110BC0F601822F90E3882375
:1011500019F091938150FBCFC20ED11C20E00F2DCE
:10116000060F9A81342F307144FF03C0913309F484
:101170000150101624F4093018F008E001C001E015
:10118000AB0177FF02C040E050E0FB01E41BF50B30
:10119000A1E0B0E0AC0FBD1FEA0FFB1F8EE2A82E4E
:1011A0004B01801A91080B2D10E011950195110942
:1011B0004F3FBFEF5B0721F4D601AC9211966D0152
:1011C000641775072CF08416950614F4818101C00C
:1011D00080E3415051093196D60111967D014017A7
:1011E000510724F0D6018C936701E2CF641775078D
:1011F00039F4963320F4953319F4311101C081E3A9
:10120000F6018083F701822F90E2882319F09193F1
:101210008150FBCFF701E20FF11D108280E090E0DA
:101220002996ECE00C9472144F925F926F927F9229
:101230008F929F92AF92BF92CF92DF92EF92FF92E6
:10124000CF93DF9300D000D0CDB7DEB740902F0111
:10125000509030016090310170903201C301B201B1
:101260000E9440164B015C01C0900001D09001012A
:10127000E0900201F0900301C701B6010E94401600
:101280009B01AC01C501B4010E94F6154B015C0144
:101290000E946B1169837A838B839C83A3019201E3
:1012A000C701B6010E9438160E946812609333018C
:1012B0007093340180933501909336012BED3FE01C
:1012C00049EC50E40E94381620E030E044EB53E44F
:1012D0000E943C1660934702709348028093490233
:1012E00090934A0220E030E040E85FE3609109011A
:1012F00070910A0180910B0190910C010E94F515EB
:101300006B017C010E9440169B01AC01C501B40138
:101310000E94F6152B013C0160E070E080E89FE33D
:101320000E9440164B015C019B01AC01C301B2015C
:101330000E94F515A50194010E94F51520E030E00A
:1013400040E05FE30E943C164B015C010E944016A6
:101350002B013C01A301920160E070E080E89FE373
:101360000E94F5150E946B11A50194010E94381688
:101370000E9468124B015C016093050170930601A5
:1013800080930701909308012BED3FE049EC50E476
:101390000E94381620E030E044EB53E40E943C16F3
:1013A00060933F0270934002809341029093420207
:1013B00029813A814B815C81C701B6010E943816B0
:1013C0000E9468126B017C01C501B4010E94D01516
:1013D0002B013C01C501B4010E942A1620E030E037
:1013E00040E85FE30E94F6159B01AC01C301B20126
:1013F0000E9438160E9468129B01AC01C701B60119
:101400000E94F51560932B0170932C0180932D01A0
:1014100090932E012BED3FE049EC50E40E943816EA
:1014200020E030E044EB53E40E943C16609343021A
:101430007093440280934502909346020F900F9060
:101440000F900F90DF91CF91FF90EF90DF90CF90B2
:10145000BF90AF909F908F907F906F905F904F90D4
:1014600008951F920F920FB60F9211242F933F935E
:101470004F935F936F937F938F939F93AF93BF939C
:10148000EF93FF9386E086BD8091570290915802BA
:10149000892B49F0809157029091580201979093BF
:1014A0005802809357028091610290916202892BC9
:1014B00051F08091610290916202019790936202D3
:1014C0008093610229C08091690290916A02909391
:1014D0006202809361028091370190913801892BDB
:1014E00069F0809104018130B9F485E60E94F1121F
:1014F0008091370190913801892B71F480913901E5
:1015000090913A01892B41F480913B0190913C01EB
:10151000892B11F40E943B1580915F02909160022B
:10152000892B51F080915F02909160020197909316
:10153000600280935F022AC08091670290916802E6
:101540009093600280935F028091390190913A01FB
:10155000892B09F47DC0809104018130B9F486E6BD
:101560000E94F1128091370190913801892B71F41A
:101570008091390190913A01892B41F480913B018E
:1015800090913C01892B11F40E943B1580915D02E2
:1015900090915E02892B51F080915D0290915E02E4
:1015A000019790935E0280935D0229C0809165024D
:1015B0009091660290935E0280935D0280913B0160
:1015C00090913C01892B39F080910401813019F40C
:1015D00087E60E94F1128091370190913801892BA2
:1015E00071F48091390190913A01892B41F48091F5
:1015F0003B0190913C01892B11F40E943B15809195
:101600005B0290915C02892B51F080915B0290917A
:101610005C02019790935C0280935B0221C088EE8C
:1016200093E090935C0280935B0281E60E94F1124A
:101630008091590290915A02892B91F08091590220
:1016400090915A02019790935A028093590208C0D0
:101650008091370190913801892B09F48FCF96CF73
:10166000FF91EF91BF91AF919F918F917F916F917A
:101670005F914F913F912F910F900FBE0F901F9050
:1016800018958091370190913801181619064CF47D
:1016900080913701909138019093700280936F028E
:1016A0000BC08091370190913801919581959109F6
:1016B0009093700280936F028091390190913A016A
:1016C000181619064CF48091390190913A019093C3
:1016D0006E0280936D020BC08091390190913A01A6
:1016E00091958195910990936E0280936D028091FE
:1016F0003B0190913C01181619064CF480913B0176
:1017000090913C0190936C0280936B020BC080918E
:101710003B0190913C0191958195910990936C02C8
:1017200080936B0220916F023091700280916D0264
:1017300090916E0228173907E4F120916F023091E1
:10174000700280916B0290916C02281739078CF11E
:1017500020916F023091700249E1429FC001439F86
:10176000900D1124909364028093630289E190E0CC
:1017700090936A028093690280916302909164025F
:1017800060916D0270916E020E94F814709368026D
:1017900060936702809163029091640260916B0292
:1017A00070916C020E94F814709366026093650257
:1017B000089520916D0230916E0280916F02909198
:1017C000700228173907E4F120916D0230916E0202
:1017D00080916B0290916C02281739078CF120914F
:1017E0006D0230916E0249E1429FC001439F900D0E
:1017F0001124909364028093630289E190E09093B6
:101800006802809367028091630290916402609104
:101810006F02709170020E94F81470936A026093D4
:101820006902809163029091640260916B027091F1
:101830006C020E94F814709366026093650208952A
:1018400020916B0230916C0249E1429FC001439F9D
:10185000900D1124909364028093630289E190E0DB
:101860009093660280936502809163029091640276
:1018700060916F02709170020E94F81470936A0276
:1018800060936902809163029091640260916D029D
:1018900070916E020E94F814709368026093670260
:1018A00008954F925F926F927F928F929F92AF9224
:1018B000BF92CF92DF92EF92FF920F931F93CF933D
:1018C000DF93CDB7DEB768970FB6F894DEBF0FBED3
:1018D000CDBFC0902B01D0902C01E0902D01F09055
:1018E0002E01C701B6010E942A162B013C0120914E
:1018F0000501309106014091070150910801C7018F
:10190000B6010E94F6156D8B7E8B8F8B988F0E948F
:101910002A169B01AC01C301B2010E94F6152B01EE
:101920003C018090330190903401A0903501B0903B
:101930003601C501B4010E942A169B01AC01C30106
:10194000B2010E943C1660932F0170933001809386
:10195000310190933201C501B4010E94D0159B0161
:10196000AC01C301B2010E943C1660930001709368
:1019700001018093020190930301C701B6010E9407
:10198000D0152B013C016D897E898F89988D0E942D
:10199000D0156B017C0120E030E040E85FE3C3013B
:1019A000B2010E94F615A70196010E94F6156093F8
:1019B000090170930A0180930B0190930C0128E0B8
:1019C00030E044E152E060E0CE0101960E948714CD
:1019D000CE0101960E942C1560912F01709130016B
:1019E00080913101909132018E010F5F1F4F22E0F3
:1019F00042E00E94F613C8010E942C1528E030E056
:101A00004CE152E060E0C8010E948714C8010E94C6
:101A10002C1560910001709101018091020190915B
:101A2000030122E042E00E94F613C8010E942C1537
:101A300028E030E044E252E060E0C8010E948714F0
:101A4000C8010E942C156091090170910A018091D2
:101A50000B0190910C0122E042E00E94F613C801B4
:101A60000E942C1523E030E04CE252E060E0C80117
:101A70000E948714C8010E942C1568960FB6F8942E
:101A8000DEBF0FBECDBFDF91CF911F910F91FF90B1
:101A9000EF90DF90CF90BF90AF909F908F907F900E
:101AA0006F905F904F900895283008F027E033271B
:101AB000DA01990F311D87FD91600096610571056E
:101AC00039F432602E5F3D9330E32A95E1F70895B3
:101AD0009F3F30F080387105610509F03C5F3C5F45
:101AE0003D93913008F08068911DDF93CF931F9351
:101AF0000F93FF92EF92192F987F9695E92F969565
:101B00009695E90FFF27E05EFE4F99273327EE24D5
:101B1000FF24A701E70105900894079428F4360FE5
:101B2000E71EF81E491F511D660F771F881F991F5A
:101B30000694A1F70590079428F4E70EF81E491FB4
:101B4000561FC11D770F881F991F661F0694A1F7A6
:101B50000590079428F4F80E491F561FC71FD11D82
:101B6000880F991F661F771F0694A1F705900794A9
:101B700020F4490F561FC71FD81F990F661F771FE4
:101B8000881F0694A9F784911095177041F0D69597
:101B9000C79557954795F794E7941A95C1F7E6ECE2
:101BA000F0E06894159015913591659195910590A7
:101BB0007FE27395E118F10A430B560BC90BD0096C
:101BC000C0F7E10CF11E431F561FC91FD01D7EF444
:101BD000703311F48A95E6CFE894015030F0080F85
:101BE0000AF40027021708F4202F2395022F7A33D6
:101BF00028F079E37D932A95E9F710C07D932A9523
:101C000089F6069497956795379517951794E11877
:101C1000F10A430B560BC90BD00998F023957E911E
:101C200073957A3308F070E37C932013B8F77E91B4
:101C300070617D9330F0839571E37D9370E32A9515
:101C4000E1F71124EF90FF900F911F91CF91DF9159
:101C5000992787FD9095089580913B0190913C01D3
:101C6000892B09F46EC080913B0190913C011816BC
:101C700019069CF5809171029091720201969093E1
:101C800072028093710280917102909172020897A2
:101C900024F010927202109271022BB180917102A5
:101CA00090917202092E000CAA0B8A509D4FAF4FE3
:101CB000FC018491A7FD808130E1839FC001112444
:101CC0002F70822B8BB980913B0190913C01019741
:101CD00090933C0180933B01089580917102909113
:101CE0007202019790937202809371028091710247
:101CF00090917202992334F487E090E090937202FD
:101D0000809371022BB18091710290917202092E21
:101D1000000CAA0B8A509D4FAF4FFC018491A7FD88
:101D2000808130E1839FC00111242F70822B8BB9F9
:101D300080913B0190913C01019690933C018093EE
:101D40003B01089510C00E940A1658F00E94031625
:101D500040F029F45F3F29F00C941F1651110C94A8
:101D600012160C9447160E94D41368F39923B1F30A
:101D7000552391F3951B550BBB27AA2762177307B1
:101D8000840738F09F5F5F4F220F331F441FAA1F45
:101D9000A9F335D00E2E3AF0E0E832D09150504001
:101DA000E695001CCAF72BD0FE2F29D0660F771FAF
:101DB000881FBB1F261737074807AB07B0E809F095
:101DC000BB0B802DBF01FF2793585F4F3AF09E3F1A
:101DD000510578F00C941F160C9412165F3FE4F333
:101DE000983ED4F3869577956795B795F7959F5F5D
:101DF000C9F7880F911D9695879597F90895E1E0A9
:101E0000660F771F881FBB1F621773078407BA0707
:101E100020F0621B730B840BBA0BEE1F88F7E09562
:101E200008958091390190913A01892B09F466C097
:101E30008091390190913A01181619067CF580912C
:101E400073029091740201969093740280937302CE
:101E50008091730290917402089724F0109274029A
:101E60001092730225B18091730290917402207FC9
:101E7000092E000CAA0B8A509D4FAF4FFC01849194
:101E8000A7FD8081822B85B98091390190913A011B
:101E9000019790933A0180933901089580917302DC
:101EA00090917402019790937402809373028091D1
:101EB000730290917402992334F487E090E0909338
:101EC00074028093730225B1809173029091740221
:101ED000207F092E000CAA0B8A509D4FAF4FFC01AA
:101EE0008491A7FD8081822B85B9809139019091E1
:101EF0003A01019690933A018093390108950FC0F9
:101F00000E94031638F00E940A1620F0952311F063
:101F10000C941F160C94471611240C9412160E9450
:101F2000D41370F3959FC1F3950F50E0551F629F36
:101F3000F001729FBB27F00DB11D639FAA27F00D22
:101F4000B11DAA1F649F6627B00DA11D661F829F49
:101F50002227B00DA11D621F739FB00DA11D621F2E
:101F6000839FA00D611D221F749F3327A00D611D4B
:101F7000231F849F600D211D822F762F6A2F11242D
:101F80009F5750409AF0F1F088234AF0EE0FFF1F60
:101F9000BB1F661F771F881F91505040A9F79E3FB7
:101FA000510580F00C941F160C9412165F3FE4F359
:101FB000983ED4F3869577956795B795F795E7950D
:101FC0009F5FC1F7FE2B880F911D9695879597F916
:101FD00008958091370190913801892B09F460C0F0
:101FE00080913701909138011816190664F5809197
:101FF0007502909176020196909376028093750215
:102000008091750290917602089724F010927602E2
:10201000109275028091750290917602092E000C43
:10202000AA0B8A509D4FAF4FFC018491A7FD808180
:1020300088B98091370190913801019790933801C8
:1020400080933701089580917502909176020197EF
:10205000909376028093750280917502909176023A
:10206000992334F487E090E0909376028093750290
:102070008091750290917602092E000CAA0B8A506D
:102080009D4FAF4FFC018491A7FD808188B980915D
:102090003701909138010196909338018093370170
:1020A000089511C00E94031638F00E940A1620F00D
:1020B00039F49F3F19F426F40C9447160EF4E0957A
:1020C000E7FB0C941F16E92F0E94D41358F3BA179C
:1020D000620773078407950720F079F4A6F50C943E
:1020E00011160EF4E0950B2EBA2FA02D0B01B9019D
:1020F00090010C01CA01A0011124FF27591B99F07E
:10210000593F50F4503E68F11A16F040A22F232F89
:10211000342F4427585FF3CF469537952795A795D9
:10212000F0405395C9F77EF41F16BA0B620B730B80
:10213000840BBAF09150A1F0FF0FBB1F661F771FF1
:10214000881FC2F70EC0BA0F621F731F841F48F4A6
:10215000879577956795B795F7959E3F08F0B0CF2F
:102160009395880F08F09927EE0F97958795089516
:10217000FA01AA27283051F1203181F1E8946F93B8
:102180006E7F6E5F7F4F8F4F9F4FAF4FB1E03ED05E
:10219000B4E03CD0670F781F891F9A1FA11D680FFC
:1021A000791F8A1F911DA11D6A0F711D811D911D2F
:1021B000A11D20D009F468943F912AE0269F1124A4
:1021C0003019305D3193DEF6CF010895462F477008
:1021D000405D4193B3E00FD0C9F7F6CF462F4F7063
:1021E000405D4A3318F0495D31FD4052419302D0C1
:1021F000A9F7EACFB4E0A695979587957795679567
:10220000BA95C9F700976105710508959B01AC0166
:102210000A2E06945795479537952795BA95C9F78D
:10222000620F731F841F951FA01D08956F927F92E8
:102230008F92CF92DF92EF920F931F933B01882EE4
:102240006901E42E01151105D9F101501109F301BD
:10225000849187FC80819FEB980F882301F1F60120
:102260004491E7FC40814423D1F001151105B9F0F8
:10227000282F9A3108F4206230E05FEB540F5A3176
:1022800008F4406250E02417350749F48FEF681ACC
:10229000780A880A8FEFC81AD80AE80AD6CF9A3186
:1022A00008F4806290E0F6012491E7FC20813FEB86
:1022B000320F3A3108F4206230E0821B930B02C0E7
:1022C00080E090E01F910F91EF90DF90CF908F9082
:1022D0007F906F90089506C019F416F40C94471679
:1022E0000C9468150E94DC13B8F39923C9F3B6F374
:1022F0009F57550B87FF0E9418160024A0E640EA5E
:10230000900180585695979528F4805C660F771F4A
:10231000881F20F026173707480730F4621B730B1D
:10232000840B202931294A2BA69517940794202540
:1023300031254A2758F7660F771F881F20F0261788
:102340003707480730F4620B730B840B200D311DE7
:10235000411DA09581F7B901842F9158880F96955A
:1023600087950895482F8091040190E09C01220FE9
:10237000331F820F931F092E000CAA0B82509D4F12
:10238000AF4FFC015A2F0E94A515A82FCB01FC01CD
:102390002491A7FD2081222309F1421317C002C016
:1023A000241314C09C014A2F2F5F3F4F4F4FF90158
:1023B000249147FD2081209304010296A11DFC0178
:1023C0005A2F0E94D815FB01099508950496A11D66
:1023D000FC012491A7FD20812111E2CF0895E8940A
:1023E00009C097FB3EF490958095709561957F4F5D
:1023F0008F4F9F4F9923A9F0F92F96E9BB2793950B
:10240000F695879577956795B795F111F8CFFAF41A
:10241000BB0F11F460FF1BC06F5F7F4F8F4F9F4F4B
:1024200016C0882311F096E911C0772321F09EE8A9
:10243000872F762F05C0662371F096E8862F70E00F
:1024400060E02AF09A95660F771F881FDAF7880FE9
:102450009695879597F908950F931F93CF93DF93E0
:10246000FB01248121FD03C08FEF9FEF2CC022FFD1
:1024700016C047815085258136814217530744F4A1
:10248000A081B1819D012F5F3F4F318320838C93C9
:10249000278130852F5F3F4F3087278314C08B0102
:1024A000EC01FB010184F285E02D0995892BE1F611
:1024B000D80117968D919C911897019618969C9328
:1024C0008E931797CE01DF91CF911F910F910895B1
:1024D000DF93DD27B92FBF7740E85FE316161706B5
:1024E00048075B0718F4D92F0E94C8159F938F9354
:1024F0007F936F930E944016E8E6F0E00E9441133C
:102500000E940C152F913F914F915F910E947F0F78
:10251000DD2351F09058A2EA2AED3FE049EC5FE359
:10252000D0785D270E945110DF910C940C150E9409
:10253000DC1388F09F5798F0B92F9927B751B0F066
:10254000E1F0660F771F881F991F1AF0BA95C9F737
:1025500014C0B13091F00E941116B1E008950C94AE
:102560001116672F782F8827B85F39F0B93FCCF361
:10257000869577956795B395D9F73EF490958095B4
:10258000709561957F4F8F4F9F4F08950E94DC1388
:1025900010F40C944716E894E0E0BB279F57F0F046
:1025A0002AED3FE049EC06C0EE0FBB0F661F771F18
:1025B000881F28F0B23A62077307840728F0B25ADE
:1025C000620B730B840BE3959A9572F7803830F4A5
:1025D0009A95BB0F661F771F881FD2F790480C94FF
:1025E0006A15982F80913702882359F0E7E3F2E0CB
:1025F00035812681321711F0883718F010923E028B
:102600000895E7E3F2E08581A181B281A80FB11DB1
:102610009C9380818F5F80839581973719F4109206
:102620003C0203C09F5F90933C0292E090933E0275
:10263000089588EE93E090935C0280935B02809112
:10264000690290916A029093620280936102809184
:102650006702909168029093600280935F0280917C
:1026600065029091660290935E0280935D0283E022
:1026700085BD86E086BDEEE6F0E0808181608083E6
:102680000895DF93CF931F930F93FF92EF92DF9202
:102690007B018C01689406C0DA2EEF010E947F0F47
:1026A000FE01E894A5912591359145915591A6F3A8
:1026B000EF010E945110FE019701A801DA9469F719
:1026C000DF90EF90FF900F911F91CF91DF910895D0
:1026D0001F920F920FB60F9211242F933F934F9397
:1026E0005F936F937F938F939F93AF93BF93EF937A
:1026F000FF9382E60E94F112FF91EF91BF91AF919B
:102700009F918F917F916F915F914F913F912F9109
:102710000F900FBE0F901F901895990F0008550F3E
:10272000AA0BE0E8FEEF16161706E807F907C0F057
:1027300012161306E407F50798F0621B730B840B5F
:10274000950B39F40A2661F0232B242B252B21F439
:1027500008950A2609F4A140A6958FEF811D811DD9
:102760000895AFE0B0E0E7EBF3E10C9443140E8979
:102770001F8986E08D831A8309838FEF9FE79F83EC
:102780008E839E01255E3F4F488D598D6A8DCE0107
:1027900001960E94D703E885F985E00FF11F1082AA
:1027A0002F96E4E00C947A1457FD9058440F551F6F
:1027B00059F05F3F71F04795880F97FB991F61F0C3
:1027C0009F3F79F087950895121613061406551F3A
:1027D000F2CF4695F1DF08C0161617061806991FA6
:1027E000F1CF86957105610508940895EF920F93D6
:1027F0001F93CF93DF93E80147FD02C034E001C08F
:1028000034E1042E000C550B57FF03C05195419540
:102810005109E32E022F242FAE010E94BA07CE01E8
:10282000DF91CF911F910F91EF9008958091370222
:102830008823B9F0E7E3F2E09681A381B481A90F80
:10284000B11D2C9181508083973719F410923D026D
:1028500003C09F5F90933D0282E080933E02822FEF
:10286000089591E090933E0208952F923F924F92E7
:102870005F926F927F928F929F92AF92BF92CF9210
:10288000DF92EF92FF920F931F93CF93DF93CDB719
:10289000DEB7CA1BDB0B0FB6F894DEBF0FBECDBF91
:1028A0000994CF92DF92EF926B01E82EA82FCB0113
:1028B0004115510531F48C199D09EF90DF90CF90AF
:1028C0000895FC012491A7FD20812223A1F3019604
:1028D000A11D41505109ECCF2A88398848885F846E
:1028E0006E847D848C849B84AA84B984C884DF80B0
:1028F000EE80FD800C811B81AA81B981CE0FD11D94
:102900000FB6F894DEBF0FBECDBFED010895CF9294
:10291000DF92EF92DC016A01E62E280F391FA21721
:10292000B30751F0F6014491E7FC40814D934FEF1E
:10293000C41AD40AE40AF3CFEF90DF90CF90089541
:10294000F8948FEF84B915B887B918B882EF8AB9AF
:102950001BB80E94B81487E690E00E941D150E94E3
:1029600044160E941913789480E70E94F11208958A
:10297000E7E3F2E08FEB91E092838183948383839A
:1029800010821582168282E08783EFEBF1E087E305
:1029900092E01192E817F907E1F787E392E00895D2
:1029A000EF93E0FF07C0A2EA2AED3FE049EC5FEBBE
:1029B0000E9451100E940C150F90039401FC905836
:1029C000E5E9F0E00C94E4149F938F937F936F9369
:1029D000FF93EF939B01AC010E943C16EF91FF9196
:1029E0000E9441132F913F914F915F910C943C169F
:1029F000AA1BBB1B51E107C0AA1FBB1FA617B70725
:102A000010F0A61BB70B881F991F5A95A9F7809540
:102A10009095BC01CD010895092E0394000C11F48A
:102A2000882352F0BB0F40F4BF2B11F460FF04C0A9
:102A30006F5F7F4F8F4F9F4F08959093C500809396
:102A4000C400E1ECF0E088E180838EE08093C20076
:102A50008081806880830895CF93DF93EC01888123
:102A6000882331F021960E94B81589918111FBCFFE
:102A7000DF91CF9108951092380110923701109292
:102A80003A011092390110923C0110923B011092D0
:102A9000040108958FEF9FEF9093380180933701E1
:102AA00090933A018093390190933C0180933B01CC
:102AB0000895A29FB001B39FC001A39F700D811D17
:102AC0001124911DB29F700D811D1124911D089537
:102AD0009F3F31F0915020F4879577956795B79592
:102AE000880F911D9695879597F908950E94161461
:102AF000E0910403F09105039781913019F480E08F
:102B00000E94F112089557FD05C065917591859158
:102B1000959108956191719181919191089580911C
:102B20007802809580937802882311F02D9A089579
:102B30002D9808950E945915A59F900DB49F900D52
:102B4000A49F800D911D1124089557FD04C0659127
:102B50007591859108956191719181910895911177
:102B60000C944A16803219F089508550C8F70895A0
:102B7000E0ECF0E0908195FFFDCF8093C6000895D2
:102B8000E0ECF0E080818823ECF78091C6000895A6
:102B90009B01AC0160E070E080E89FE30C94381684
:102BA0009F930E94C6120F9007FCEE5F0C94D01406
:102BB00057FD03C0659175910895619171910895D4
:102BC0000E94FC15709338016093370108950E94AC
:102BD000FC1570933A016093390108950E94FC1529
:102BE00070933C0160933B0108955058BB27AA277E
:102BF0000E9451100C940C150E9497126894B11108
:102C00000C941216089500240A9416161706180636
:102C10000906089500240A941216130614060506E0
:102C20000895E894BB2766277727CB0197F9089585
:102C300091505040660F771F881FD2F7089597F97B
:102C40009F6780E870E060E008950E9476150E941A
:102C5000B211FBCF0E94C612E3950C94D0140E94CF
:102C60008D1308F481E008950E94A0140E94251697
:102C70000E94A20E0C940C150E947F0F0C940C1550
:102C80009B01AC010C943C161092040108959FEF37
:102C900080EC08959927882708950C9400000895E2
:062CA000190019001900E3
:00000001FF
